F224415583      C008166203224008              0F224415583 20200303055449CSIP    03     00000000H0000077       
F228527575      C008252200250515              0F228527575 20200303055359CSIP    03     00000000H0000077       
F130495111      C008193200430780              0F130495111 20200303055355CSIP    033002600040860H0000077       
A104391745      A008199200082769              0A104391745 20200303055403CSIP    03     00000000H0000077       
A224001539      C00952035001869400            0A224001539 20200303055337CSIP    03     00000000H0000077       
A123331447      C00996588603322200            0A123331447 20200303055400CSIP    03     00000000H0000077       
F226907093      C00992698601287100            0F226907093 20200303055404CSIP    03     00000000H0000077       
F223658128      C00956855103342002            0F223658128 20200303055504CSIP    03     00000000H0000077       
A123220841      C012703168502665              0A123220841 20200303055414CSIP    03     00000000A0003011       
Q200304732      C012411168144229              0F224024822 20200303055439CSIP    03     00000000A0003011       
L101452348      C012360168617239              0L123374585 20200303055350CSIP    03     00000000A0003011       
S222890757      C012442168162068              0S222890757 20200303055424CSIP    031711400043751A0003011       
P222581321      C013272506144205              0P222581321 20200303055504CSIP    033001700045441A0003011       
H120872215      C013028506025453              0H120872215 20200303055405CSIP    03     00000000A0003011       
N121127688      C013108506303856              0N121127688 20200303055521CSIP    03     00000000A0003011       
Y220394676      C108156020001362              0T122273451 20200303055454CSIP    03     00000000A0004335       
A120553558      C11809055000000093            0A120553558 20200303055523CSIP    03     00000000A0004335       
M120769270      C42957501020001086            0M120769270 20200303055522CSIP    03     00000000A0004335       
E222092867      C80719801800053337            0E222092867 20200303055348CSIP    03     00000000A0004335       
V221358262      C8080716979115788             0V221358262 20200303055437CSIP    03     00000000H0000119       
P223436165      C80960690400020205            0P223436165 20200303055459CSIP    03     00000000H0000119       
F125341017      C80900010533281506            0F125341017 20200303055438CSIP    03     00000000H0000119       
F127267596      C81228881000799350            0F127267596 20200303055457CSIP    03     00000000H0000119       
J122355978      C81220521070124282            0J122355978 20200303055448CSIP    03     00000000H0000119       
L224823696      C81228881009471627            0L224823696 20200303055455CSIP    03     00000000H0000119       
V121248054      C81228881000361577            0V121248054 20200303055418CSIP    03     00000000H0000119       
G101017631      C012749168003553              0G101017631 20200303055424CSIP    03     00000000H0000119       
J222675628      C80716801800128555            0J222675628 20200303055341CSIP    03     00000000H0000119       
R124323587      A70101913180121101            0R124323587 20200303074146PCTI    03     00000000H0000077       
T222619146      A70100715170448091            0T222619146 20200303074124PCTI    03     00000000H0000077       
N123627118      A70100812410590801            0N123627118 20200303074129PCTI    03     00000000H0000077       
H223542618      C70101210540682512            0H223542618 20200303074136CSIP    03     00000000H0000077       
B221184658      A70100210092251731            0B221184658 20200303074037PCTI    03     00000000H0000077       
T224103650      A70100713970391790            0T224103650 20200303074123PCTI    03     00000000H0000077       
L221437036      A70101412600749418            0L221437036 20200303074140PCTI    03     00000000H0000077       
F101411021      A70100026260146099            0F101411021 20200303074028PCTI    03     00000000H0000077       
F224442866      A70124413621527176            0F224442866 20200303074210PCTI    03     00000000H0000077       
E122336826      A70100312660337914            0E122336826 20200303074053PCTI    03     00000000H0000077       
C120573810      A70100110020822752            0C120573810 20200303074034PCTI    033003400042847H0000077       
V221567752      C70102611790110590            0V221567752 20200303074149PCTI    031753100000000H0000077       
F128391804      A70124411940124323            0F128391804 20200303074209PCTI    031710100029415H0000077       
E122967385      A70100410320460821            0E122967385 20200303074100PCTI    03     00000000H0000077       
Q124105659      A70100513290579275            0Q124105659 20200303074114PCTI    03     00000000H0000077       
V220263684      A70101210540591365            0V220263684 20200303074135PCTI    03     00000000H0000077       
B221910998      A70100212390184062            0B221910998 20200303074040PCTI    03     00044332H0000077       
Q120238353      A70100111550213821            0Q120238353 20200303074036PCTI    033000200039124H0000077       
T120263171      A70100710938002649            0T120263171 20200303074121PCTI    03     00000000H0000077       
T123072494      A70100711980178449            0T123072494 20200303074122PCTI    03     00000000H0000077       
T120197672      C70102910080487103            0T120197672 20200303074152PCTI    033003500038442H0000077       
S222873023      A70100211790644077            0S222873023 20200303074039PCTI    03     00000000H0000077       
A223911241      C70103117100274779            0A223911241 20200303074159CSIP    03     00000000H0000077       
R123338968      C70101910010673741            0R123338968 20200303074143CSIP    03     00000000H0000077       
H221700818      A70101211930179063            0H221700818 20200303074137PCTI    03     00000000H0000119       
N224555408      A70100813800583569            0N224555408 20200303074130PCTI    03     00000000H0000119       
B220567662      A70101412870209174            0B220567662 20200303074141PCTI    03     00000000H0000119       
A123549127      A70101411480447139            0A123549127 20200303074139PCTI    03     00000000H0000119       
F224298715      A70103118591175468            0F224298715 20200303074202PCTI    03     00000000H0000119       
H223555857      A70100812100059873            0H223555857 20200303074126PCTI    03     00000000H0000119       
T121717954      A70100027170484675            0T121717954 20200303074032PCTI    03     00000000H0000119       
A102108144      C70100018330275730            0A102108144 20200303074022PCTI    03     00000000H0000119       
F120047096      A70124414050157269            0F120047096 20200303074211PCTI    03     00000000H0000119       
H220252000      A70100018330238605            0H220252000 20200303074021PCTI    03     00000000H0000119       
A129833851      A70100027031069651            0A129833851 20200303074031PCTI    03     00000000H0000119       
L223001721      A70100212600490730            0L223001721 20200303074042PCTI    03     00000000H0000119       
L223562372      A70100213470758527            0L223562372 20200303074047PCTI    03     00011867H0000119       
R124436829      A70100314960139530            0R124436829 20200303074057PCTI    03     00000000H0000119       
D121811123      A70100312180095769            0D121811123 20200303074052PCTI    03     00000000H0000119       
R223869684      A70100315080008447            0R223869684 20200303074058PCTI    03     00000000H0000119       
F128488768      A70103117231612044            0F128488768 20200303074201PCTI    03     00000000H0000119       
S222469618      C004033008148199              0S222469618 20200303055524CSIP    03     00000000H0000119       
L121282100      C0060250872147655             0L121282100 20200303055511CSIP    03     00000000H0000119       
L123152409      C0065908765255929             0L123152409 20200303055336CSIP    033006700041752A0003263       
A224712091      C00724668039868               0A224712091 20200303055509CSIP    03     00032446A0003263       
P123366380      C008540200402388              0P123366380 20200303055415CSIP    03     00000000A0003263       
U121602619      C00955678645308200            0U121602619 20200303055345CSIP    03     00000000A0003263       
F220558890      C012702168496146              0F220558890 20200303055514CSIP    03     00000000A0003263       
B120469525      C013262506082484              0L223497781 20200303055453CSIP    03     00000000A0003263       
L122202937      C013035506258055              0L122202937 20200303055520CSIP    03     00000000A0003263       
Q124064920      C016214210855220              0Q124064920 20200303055438CSIP    03     00000000A0003263       
A124898067      C01721910162739               0A124898067 20200303055451CSIP    03     00000000A0003263       
A127135218      C01702313103892               0A127135218 20200303055509CSIP    03     00000000A0003263       
R124368095      C05082062893628               0R124368095 20200303055517CSIP    03     00000000A0004335       
F227396441      C05208720000142345            0F227396441 20200303055344CSIP    03     00000000A0004335       
D221879967      C081018033241388              0D221879967 20200303055505CSIP    03     00000000A0004335       
J100289144      C1031021500132975             0J100289144 20200303055513CSIP    03     00000000A0004335       
P120313743      C80702201800011659            0P120313743 20200303055519CSIP    03     00000000A0004335       
F128653943      C8081045979230655             0F128653943 20200303055510CSIP    03     00000000A0004335       
N126019056      C81220091000203535            0N126019056 20200303055435CSIP    031752200029766A0004335       
A129734522      C81228881008377411            0A129734522 20200303055338CSIP    033011600045404A0004335       
G201047131      A70100018020108902            0G201047131 20200303074020PCTI    033000900040516A0003263       
T200012223      A70100710010892194            0T200012223 20200303074119PCTI    03     00000000A0003263       
G220297419      A70101110580169496            0G220297419 20200303074133PCTI    03     00000000A0003263       
M201405253      A70104010050103876            0M201405253 20200303074204PCTI    03     00000000A0003263       
F223895523      A70100613870677007            0F223895523 20200303074116PCTI    03     00000000A0003263       
A223398426      A70100025180408386            0A223398426 20200303074027PCTI    03     00000000A0003263       
F228168727      A70100315910454875            0F228168727 20200303074059PCTI    03     00000000A0003263       
D121212719      A70100310051356297            0D121212719 20200303074051PCTI    03     00000000A0003263       
F126226082      A70100510081473699            0F126226082 20200303074108PCTI    03     00000000A0003263       
T223170504      A70101212539001487            0T223170504 20200303074138PCTI    03     00000000A0003263       
E124546740      A70100418870097878            0E124546740 20200303074107PCTI    03     00000000A0003263       
J222665677      A70100614640007043            0J222665677 20200303074118PCTI    03     00000000A0003263       
R220135556      A70101910450046061            0R220135556 20200303074144PCTI    03     00000000A0003263       
R123106528      C70100312700384525            0R123106528 20200303074054CSIP    03     00000000A0003263       
F100706030      A70100021060013450            0F100706030 20200303074026PCTI    03     00000000A0003263       
R121776844      A70101914430271906            0R121776844 20200303074147PCTI    03     00000000A0003263       
K220681512      A70100212600340640            0K220681512 20200303074041PCTI    03     00000000A0003263       
J221233555      A70100614020109301            0J221233555 20200303074117PCTI    031713100029321A0003263       
P222114919      C70103010730252301            0P222114919 20200303074153CSIP    031713100029321A0003263       
T223181598      A70100414310521113            0T223181598 20200303074103PCTI    03     00000000A0003263       
D120741855      A70100026439000217            0D120741855 20200303074029PCTI    03     00000000A0003263       
R122957861      A70100313090314548            0R122957861 20200303074055PCTI    03     00000000A0003263       
P123371121      C70103010730246477            0P123371121 20200303074153CSIP    031734100086636A0003263       
I200459633      A70100214900230052            0I200459633 20200303074048PCTI    031734100080351A0003263       
S200820073      A70100416300130939            0S200820073 20200303074105PCTI    03     00000000A0003263       
P220378059      A70101112571328592            0P220378059 20200303074134PCTI    03     00000000A0003263       
A125832750      A70100013440736311            0A125832750 20200303074015PCTI    03     00000000A0004335       
V121386826      A70102611170099670            0V121386826 20200303074148PCTI    031753100038720A0004335       
C120103489      A70100110640229471            0C120103489 20200303074035PCTI    03     00000000A0004335       
T123296574      C70101911400200511            0T123296574 20200303074145CSIP    03     00000000A0004335       
S222589339      A70100415210274842            0S222589339 20200303074104PCTI    03     00000000A0004335       
X220091900      A70100418420086511            0X220091900 20200303074106PCTI    03     00000000A0004335       
S123726870      A70102810320282791            0S123726870 20200303074150PCTI    03     00000000A0004335       
H220249432      A70100014350630861            0H220249432 20200303074017PCTI    03     00000000A0004335       
I200162073      A70100510110606194            0I200162073 20200303074109PCTI    033004700010478A0004335       
F227272026      A70103119050101017            0F227272026 20200303074203PCTI    033008000043450A0004335       
T224174506      A70100715510207477            0T224174506 20200303074125PCTI    033011200040513A0004335       
H220214519      C70100018470339582            0H220214519 20200303074023CSIP    03     00000000H0000119       
A221486674      A70103110210951048            0A221486674 20200303074157PCTI    03     00000000H0000119       
L123829870      A70100210099024654            0L123829870 20200303074038PCTI    03     00000000H0000119       
H221469429      A70102814610276306            0H221469429 20200303074151PCTI    03     00000000H0000119       
F220078879      A70124414980155500            0F220078879 20200303074212PCTI    03     00000000H0000119       
R223053613      A70101911360474509            0R223053613 20200303074145PCTI    03     00000000H0000119       
A122893251      A70100610970192101            0A122893251 20200303074115PCTI    03     00000000H0000119       
B121932134      A70100213020428128            0B121932134 20200303074043PCTI    03     00000000H0000119       
A224212265      A70100018330408494            0A224212265 20200303074023PCTI    03     00000000H0000119       
A225251319      A70100029200011861            0A225251319 20200303074033PCTI    03     00043346H0000119       
E122787716      A70100414310362839            0E122787716 20200303074102PCTI    03     00000000H0000119       
P100578944      A70100010540815281            0P100578944 20200303074013PCTI    03     00000000A0003011       
F234537685      A70100512070116726            0F234537685 20200303074112PCTI    03     00000000A0003011       
R223472716      A70100511810239481            0R223472716 20200303074111PCTI    03     00000000A0003011       
Q121097294      A70100015439001564            0Q121097294 20200303074019PCTI    03     00000000A0003011       
M200453568      A70100019110185006            0M200453568 20200303074025PCTI    03     00000000A0003011       
L125060208      A70100216060256058            0L125060208 20200303074049PCTI    03     00000000A0003011       
Q222910341      C70100513630230248            0Q222910341 20200303074114CSIP    03     00000000H0000119       
Q201023478      A70100027030731435            0Q201023478 20200303074030PCTI    03     00000000H0000119       
N123997160      A70100815130379483            0N123997160 20200303074131PCTI    03     00000000H0000119       
A229133429      A70100014350616767            0A229133429 20200303074016PCTI    03     00000000H0000119       
E123860876      C70100412620453207            0E123860876 20200303074101CSIP    033019000045377H0000119       
L224784158      A70101413160097603            0L224784158 20200303074142PCTI    03     00000000H0000119       
P220396235      A70103011780592019            0P220396235 20200303074154PCTI    03     00000000H0000119       
A103437537      A70103117230723781            0A103437537 20200303074200PCTI    03     00000000A0004335       
Q223503984      A70100512410099697            0Q223503984 20200303074113PCTI    03     00000000A0004335       
L124193842      A70100812100114176            0L124193842 20200303074127PCTI    03     00000000A0004335       
A221693213      A70124410410322760            0A221693213 20200303074208PCTI    03     00000000A0004335       
L221853218      A70100213470455225            0L221853218 20200303074046PCTI    03     00000000H0000119       
F229959937      A70103111430647744            0F229959937 20200303074158PCTI    031711600042596H0000119       
T124018127      A70100710930291241            0T124018127 20200303074120PCTI    03     00000000H0000119       
I100168215      A70100510420131401            0I100168215 20200303074110PCTI    031734100080351H0000119       
P223309289      A70103011780755136            0P223309289 20200303074155PCTI    031734100086636H0000119       
M120590104      C70104012210753274            0M120590104 20200303074207CSIP    03     00017040H0000119       
D201300907      A042222512498687              0D201300907 20200303104241PCTI    031751100034021A0004335       
L222106012      A042222536494007              0L222106012 20200303104303PCTI    031751100034681A0004335       
D221718834      A042137540259394              0D221718834 20200303104322PCTI    031751100034021A0004335       
S223654853      A042229540168380              0S223654853 20200303104401PCTI    031752300023917A0004335       
E122456092      A042439540424186              0E122456092 20200303104456PCTI    031753100084792A0004335       
S123233736      A042118540530003              0S123233736 20200303104515PCTI    031752300085319A0004335       
B121435032      C042045530077102              0L221326690 20200303104743PCTI    033020800040523A0004335       
O100401252      C042336540412534              0O100401252 20200303103822PCTI    03     00000000A0004335       
G220959905      C042296540130545              0G220959905 20200303103842PCTI    03     00000000A0004335       
J200182884      A042071534084356              0J200182884 20200303103901PCTI    03     00000000A0004335       
A228498252      C042646540097636              0A228498252 20200303103920PCTI    03     00000000A0004335       
U120887930      C042509540317615              0U120887930 20200303103947PCTI    03     00000000A0004335       
D222179484      C042358540408762              1D222179484 20200303104011PCTI    03     00000000A0004335       
H290054532      C042023540385204              0H290054532 20200303104034PCTI    03     00000000A0004335       
L101569213      A042392540214527              0L101569213 20200303104058PCTI    03     00000000A0004335       
A226101103      A042185540032631              0A226101103 20200303104844PCTI    033001700045441A0003011       
A221853871      C042428540918687              0A221853871 20200303104908PCTI    033003800007783A0003011       
19600102RI      A042406531348408              019600102RIC20200303104317PCTI    03     00015889H0000077       
M221356359      C042056545268885              0M221356359 20200303104337PCTI    03     00042908H0000077       
Q123007010      D                             0           20200303111927CSIP    03             A0003263       
Q223578150      D                             0           20200303111947CSIP    03             A0003263       
L220978805      D                             0           20200303112010CSIP    03             A0003263       
E120358306      D                             0           20200303112025CSIP    03             A0003263       
EOF
